{
  "contractName": "ProductPaymentHanler",
  "abi": [
    {
      "inputs": [
        {
          "internalType": "contract ProductManager",
          "name": "_parentContract",
          "type": "address"
        },
        {
          "internalType": "uint256",
          "name": "_idex",
          "type": "uint256"
        },
        {
          "internalType": "uint256",
          "name": "_price",
          "type": "uint256"
        }
      ],
      "stateMutability": "nonpayable",
      "type": "constructor"
    },
    {
      "inputs": [],
      "name": "index",
      "outputs": [
        {
          "internalType": "uint256",
          "name": "",
          "type": "uint256"
        }
      ],
      "stateMutability": "view",
      "type": "function"
    },
    {
      "inputs": [],
      "name": "isProductPurchased",
      "outputs": [
        {
          "internalType": "bool",
          "name": "",
          "type": "bool"
        }
      ],
      "stateMutability": "view",
      "type": "function"
    },
    {
      "inputs": [],
      "name": "parentContract",
      "outputs": [
        {
          "internalType": "contract ProductManager",
          "name": "",
          "type": "address"
        }
      ],
      "stateMutability": "view",
      "type": "function"
    },
    {
      "inputs": [],
      "name": "price",
      "outputs": [
        {
          "internalType": "uint256",
          "name": "",
          "type": "uint256"
        }
      ],
      "stateMutability": "view",
      "type": "function"
    },
    {
      "stateMutability": "payable",
      "type": "receive"
    }
  ],
  "bytecode": "0x608060405234801561001057600080fd5b506040516105653803806105658339818101604052606081101561003357600080fd5b8101908080519060200190929190805190602001909291908051906020019092919050505082600260016101000a81548173ffffffffffffffffffffffffffffffffffffffff021916908373ffffffffffffffffffffffffffffffffffffffff16021790555081600181905550806000819055505050506104ac806100b96000396000f3fe6080604052600436106100435760003560e01c8063230b9da3146103255780632986c0e51461037c578063a035b1fe146103a7578063c25fffa5146103d257610320565b3661032057600260009054906101000a900460ff16156100cb576040517f08c379a00000000000000000000000000000000000000000000000000000000081526004018080602001828103825260188152602001807f50726f6475637420697320616c726561647920706169642e000000000000000081525060200191505060405180910390fd5b6000543414610125576040517f08c379a00000000000000000000000000000000000000000000000000000000081526004018080602001828103825260308152602001806104476030913960400191505060405180910390fd5b6000600260019054906101000a900473ffffffffffffffffffffffffffffffffffffffff1673ffffffffffffffffffffffffffffffffffffffff1634600154604051602401808281526020019150506040516020818303038152906040527f800fb83f000000000000000000000000000000000000000000000000000000007bffffffffffffffffffffffffffffffffffffffffffffffffffffffff19166020820180517bffffffffffffffffffffffffffffffffffffffffffffffffffffffff83818316178352505050506040518082805190602001908083835b602083106102245780518252602082019150602081019050602083039250610201565b6001836020036101000a03801982511681845116808217855250505050505090500191505060006040518083038185875af1925050503d8060008114610286576040519150601f19603f3d011682016040523d82523d6000602084013e61028b565b606091505b5050905080610302576040517f08c379a000000000000000000000000000000000000000000000000000000000815260040180806020018281038252601d8152602001807f5472616e73616374696f6e2077616e2774207375636365737366756c2e00000081525060200191505060405180910390fd5b6001600260006101000a81548160ff02191690831515021790555050005b600080fd5b34801561033157600080fd5b5061033a610401565b604051808273ffffffffffffffffffffffffffffffffffffffff1673ffffffffffffffffffffffffffffffffffffffff16815260200191505060405180910390f35b34801561038857600080fd5b50610391610427565b6040518082815260200191505060405180910390f35b3480156103b357600080fd5b506103bc61042d565b6040518082815260200191505060405180910390f35b3480156103de57600080fd5b506103e7610433565b604051808215151515815260200191505060405180910390f35b600260019054906101000a900473ffffffffffffffffffffffffffffffffffffffff1681565b60015481565b60005481565b600260009054906101000a900460ff168156fe596f75206d757374207061792074686520657861637420616d6f757420746861742070726f6475637420636f7374732ea26469706673582212208c394db4fba72610c7a94baccb1b24e34ba6939560e2bf6e03e36b5d7a8a9eb064736f6c63430006060033",
  "immutableReferences": {},
  "source": "// SPDX-License-Identifier: MIT\r\npragma solidity ^0.6.0.;\r\n\r\nimport \"./ProductManager.sol\";\r\n\r\n/**\r\n * @dev Contract for hadnling payment for each individual product.  \r\n * Receives the payment and forwards it back to item manager.\r\n * By handling payments this way, we can use simple receive function and keep the information of which product is being purchased.\r\n * \r\n */\r\ncontract ProductPaymentHanler{\r\n    \r\n    uint public price;\r\n    uint public index;\r\n    bool public isProductPurchased;\r\n    ProductManager public parentContract;\r\n    \r\n    constructor(ProductManager _parentContract, uint _idex, uint _price) public {\r\n        parentContract = _parentContract;\r\n        index = _idex;\r\n        price = _price;\r\n    }\r\n    \r\n    /**\r\n     * @dev Receiving payment for the product and redirecting payment to parent contract and triggering the event.\r\n     */\r\n    receive() external payable {\r\n        require(!isProductPurchased, \"Product is already paid.\");\r\n        require(msg.value == price, \"You must pay the exact amout that product costs.\");\r\n        \r\n        /// @dev Using low-level call function (instead of simple transfer function on contract)\r\n        (bool success, ) = address(parentContract).call{value: msg.value}(abi.encodeWithSignature(\"triggerPayment(uint256)\", index));\r\n        require(success, \"Transaction wan't successful.\");\r\n        \r\n        isProductPurchased = true;\r\n    }\r\n}",
  "sourcePath": "D:\\Etherium\\SupplyChainDApp\\contracts\\ProductPaymentHanler.sol",
  "compiler": {
    "name": "solc",
    "version": "0.6.6+commit.6c089d02.Emscripten.clang"
  },
  "schemaVersion": "3.4.10",
  "updatedAt": "2022-12-01T07:31:52.976Z",
  "devdoc": {
    "details": "Contract for hadnling payment for each individual product.   Receives the payment and forwards it back to item manager. By handling payments this way, we can use simple receive function and keep the information of which product is being purchased. \r",
    "methods": {}
  },
  "userdoc": {
    "methods": {}
  }
}